:020000040000FA
:1000000068022020C5010000C9010000CB010000EA
:1000100000000000000000000000000000000000E0
:10002000000000000000000000000000CD01000002
:100030000000000000000000CF010000D10100001E
:10004000D3010000D3010000D3010000D301000060
:10005000D3010000D3010000D3010000D301000050
:1000600000000000D3010000D301000000000000E8
:1000700000000000D3010000D30100009909000036
:10008000D3010000D3010000D3010000D301000020
:10009000D3010000D30100000000000000000000B8
:1000A000D3010000D30100000000000000000000A8
:1000B000D301000000000000D3010000D3010000C4
:1000C00000F002F800F052F812A030C808382418E6
:1000D0002D18AC4201D100F049F80FCCA246AB4636
:1000E0000CA730CF2D1B083F3F197C427F1E544484
:1000F0002D090426F441641EAC4201D300F036F809
:100100000126334200D0FB1A3343984754465D46DC
:10011000DFE70000F4090000140A000000000000FE
:10012000103A02D378C878C1FAD8520701D330C840
:1001300030C101D504680C60704700000000000069
:100140007047000000000000002300240025002666
:10015000103A01D378C1FBD8520700D330C100D583
:100160000B6070471FB51FBD10B510BD00F0A4F89F
:100170001146FFF7F7FF00F0B5FC00F0BCF803B440
:10018000FFF7F2FF03BC00F0C3F8000070B50546AE
:100190000C46164602E00FCC0FC5103E102EFAD2C8
:1001A000082E02D303CC03C5083E042E07D301CC8E
:1001B00001C5361F03E021782970641C6D1C761E72
:1001C000F9D270BD06480047FEE7FEE7FEE7FEE70E
:1001D000FEE7FEE703480449024A044B704700006B
:1001E000C100000068012020680220206801202052
:1001F000F8B5042A2CD3830712D00B78491C03705E
:10020000401C521E83070BD00B78491C0370401C06
:10021000521E830704D00B78491C0370401C521EE9
:100220008B079B0F05D0C91ADF002023DE1B08C9EE
:100230000AE0FFF7ABFFF8BD1D4608C9FD401C46AC
:10024000B4402C4310C0121F042AF5D2F308C91A77
:10025000521EF0D40B78491C0370401C521EEAD485
:100260000B78491C0370401C012AE4D40978017002
:10027000F8BD01E004C0091F0429FBD28B0701D59A
:100280000280801CC90700D00270704700290BD083
:10029000C30702D00270401C491E022904D3830701
:1002A00002D50280801C891EE3E70022EEE70022CF
:1002B000DFE7704770477047754600F025F8AE4697
:1002C000050069465346C008C000854618B020B5F1
:1002D000FFF780FF60BCB64600260027C0C5C0C53A
:1002E000C0C5C0C5C0C5C0C5C0C5C0C5403D490822
:1002F00049008D46704710B50446C046C0462046AA
:10030000FFF73DFF10BD000000487047100020209F
:1003100001491820ABBEFEE726000200704784B0FA
:100320000290019100200090FFE700980199884217
:1003300010DAFFE7029800994900405A002804D0DB
:10034000FFE703A90020087008E0FFE70098401CC1
:100350000090EAE703A901200870FFE703A80078EE
:1003600004B0704780B582B0134800F043F90146ED
:1003700001A80170007800F091F910480078012878
:100380000AD1FFE70D49002008700D4800F016FA69
:100390000C4800F01DFAFFE70948F34A0A4B042114
:1003A000009100F007FB00990648F04A074B00F067
:1003B00001FB02B080BDC04600801040FE0020203E
:1003C000720020208600202000002020080020202D
:1003D000811E091F00BFFCD2704784B003900291B8
:1003E000019203980068009000980199884300905A
:1003F00000980299019A114008430399086004B0DB
:10040000704782B0019000910098019995225201A5
:10041000885002B07047000082B0019000910098AF
:100420000199024A885002B07047C046D0120000BD
:1004300081B0009000990120C2025648885001B056
:100440007047C04681B00090009881001A4A812010
:10045000885001B07047C04610B584B0069C039028
:100460000291019200930298019908430099084370
:100470000699084381210843039989000E4A885050
:1004800004B010BD82B00190009100980349084368
:1004900001998900084A885002B070478000040022
:1004A00082B0019000910098802108430199890051
:1004B000014A885002B070470480424081B00090E9
:1004C0000099554A5548885001B0704782B0019054
:1004D000009100980199024A885002B07047C046C6
:1004E0009012000006490868012290430860704796
:1004F0000349086801221202904308607047C04611
:1005000008010B40034908680122120310430860E8
:100510007047C04604010B4081B001466846017037
:1005200000780249086001B07047C04608030B40DC
:1005300080B582B0014601A801700178024803220B
:10054000FFF74BFF02B080BD00010B4081B000906F
:10055000009911200202885801231843885001B0E5
:100560007047000082B001900091009B0199034AFE
:1005700088581843885002B07047C04628100000C1
:1005800081B0009000990120C2020248885001B059
:100590007047C0460100002681B00090009881217C
:1005A00049014058C0B201B070470000B0B51122F7
:1005B000120283580124A34383500B888C781C4378
:1005C0008B882343094C1C408358094D1D406319F7
:1005D00083508B79CC791C43097A21437E231940BF
:1005E000801842689A4351184160B0BD18670000F6
:1005F000E798FDFF81B00090009802494058C0B2D2
:1006000001B070472411000081B000900099024AA7
:100610000248885001B0704704080000030000B190
:1006200080B584B003900291019203980B49401861
:1006300002990B4AFFF7D1FE03980A494018019925
:100640003F22FFF7CAFE0399074A881889580122FA
:100650001140FFF7C2FE04B080BDC046101100007B
:10066000FFFF0000141100000411000010B501226A
:10067000120383180C789C604978815010BD80B5B6
:1006800082B001900091019811210902401800994F
:100690000322D203FFF7A1FE02B080BD80B584B073
:1006A000014603A80170007812280BD1FFE72A4900
:1006B000012008700398294B1A78511C1970284999
:1006C000885446E024480078002806D1FFE72649F0
:1006D00003200860254908603BE003981F4B1A7807
:1006E000511C19701E49885403A800785B281AD140
:1006F000FFE71949002002900870184908702E4839
:100700001749019164220092FFF772FD0099019848
:10071000144B01221A70FFF7C8FD029812490860B5
:1007200012490860FFE70D48007864280FDBFFE7F7
:100730000D49032008600D49086007490020087032
:100740000649087006486421FFF7AFFDFFE7FFE7A1
:10075000FFE704B080BDC04671002020700020205B
:100760009A002020FE002020040020200C002020E1
:1007700080B584B003900291019200200090FFE7C1
:1007800000980299884215DAFFE700980399421809
:1007900009488118805C497800F024F80199009A92
:1007A000D30FD21801239A438852FFE70098801C88
:1007B0000090E5E704B080BDFF00202080B582B046
:1007C0000190019A02200821FFF7D2FF02B080BDFC
:1007D00080B582B00190019A0A200821FFF7C8FF76
:1007E00002B080BD82B00A46014601A80170694688
:1007F0000A70007800020978401802B0704780B58E
:1008000082B00F20019000F0FFF8019800F012F97B
:1008100002B080BD80B584B0142002210191FFF7A1
:100820003FFE01991520FFF72DFE002300930120C4
:100830000290020423201946FFF70EFE0198FFF7ED
:1008400001FE0520FFF7FEFD029881033C4803905E
:10085000FFF7D7FD039809210907FFF737FE039833
:100860000249FFF7D9FD04B080BDC04600400090AA
:1008700080B582B000200190FFF74EFE0198FFF78F
:1008800057FEFFF72FFEFFF733FEFFF73BFE02B0E8
:1008900080BD80B57D20000200F056F880BD0000CC
:1008A00080B582B0104942480190FFF7DFFE019801
:1008B0000E49FFF77BFE019800210091FFF7DFFE54
:1008C000019811211722FFF7ABFE0198032189023D
:1008D000FFF748FE00990F2000F0C2F80198FFF7DB
:1008E00035FE02B080BDC046F80A0000FA0A0000DA
:1008F00080B500F009F8FFF78DFFFFF7B9FFFFF7AC
:10090000CFFFFFF7C6FF80BD80B584B00C480190D3
:10091000FFF7D4FD0B480290FFF7D0FD2448039069
:10092000FFF772FE0198FFF783FD0298FFF780FD45
:100930000398FFF725FE1020FFF74AFD04B080BDA5
:1009400000000A4000200A4080B584B0029002985E
:10095000401E000E002803D0FFE70120039011E0A5
:100960000298401E0949086000200190C0430321FD
:1009700000F076F8019806490860064A07211160E0
:100980000390FFE7039804B080BDC04614E000E088
:1009900018E000E010E000E080B50548FFF7FCFD3E
:1009A0000B2803D1FFE7FFF7DDFC00E0FFE780BD88
:1009B0000080104080B584B00390029101920093B2
:1009C0000198006803281CD0FFE703980299FFF7FD
:1009D000A6FC00280ED0FFE700980068002804D18C
:1009E000FFE701990220086003E0019901200860F7
:1009F000FFE705E001990020086000990860FFE723
:100A0000FFE704B080BD000081B001466846017078
:100A100000214056002809D4FFE7684601781F20CE
:100A200001400120884002490860FFE701B070479B
:100A300080E200E081B00146684601700021405626
:100A4000002809D4FFE7684601781F2001400120F3
:100A5000884002490860FFE701B0704700E100E00C
:100A600070B582B0024601A8027000910021405684
:100A7000002816D4FFE7002401A908570322D34316
:100A80001840174A805809578C07E50EFF24AC40E0
:100A9000A043009CA401E4B2AC402043194088501C
:100AA0001AE001A908780F24204008380322D34314
:100AB00018400A4A8058002549578D07EE0EFF2539
:100AC000B540A843009DAD01EDB2B540284321409B
:100AD000083919408850FFE702B070BD1CED00E0F6
:100AE00000E400E080B582B000200190FFF700FF35
:100AF000FFF785FEFFE7FEE7080000001800000092
:100B00000030000000000000280B00000000202042
:100B10001000000020010000380B00001000202011
:100B2000580200004801000001000000FFFFFFFF25
:080B300001000000FFFFFFFFC0
:04000005000000C136
:00000001FF
